{
    "_format": "hh-sol-artifact-1",
    "contractName": "BulkSend",
    "sourceName": "contracts/BulkSend.sol",
    "abi": [
        {
            "anonymous": false,
            "inputs": [
                {
                    "indexed": true,
                    "internalType": "address",
                    "name": "previousOwner",
                    "type": "address"
                },
                {
                    "indexed": true,
                    "internalType": "address",
                    "name": "newOwner",
                    "type": "address"
                }
            ],
            "name": "OwnershipTransferred",
            "type": "event"
        },
        {
            "inputs": [
                {
                    "internalType": "contract IERC1155",
                    "name": "token",
                    "type": "address"
                },
                {
                    "components": [
                        {
                            "internalType": "address",
                            "name": "to",
                            "type": "address"
                        },
                        {
                            "internalType": "uint256",
                            "name": "id",
                            "type": "uint256"
                        },
                        {
                            "internalType": "uint256",
                            "name": "amount",
                            "type": "uint256"
                        }
                    ],
                    "internalType": "struct BulkSend.ERC1155TransferTask[]",
                    "name": "tasks",
                    "type": "tuple[]"
                }
            ],
            "name": "erc1155send",
            "outputs": [],
            "stateMutability": "payable",
            "type": "function"
        },
        {
            "inputs": [
                {
                    "internalType": "contract IERC20",
                    "name": "token",
                    "type": "address"
                },
                {
                    "components": [
                        {
                            "internalType": "address",
                            "name": "to",
                            "type": "address"
                        },
                        {
                            "internalType": "uint256",
                            "name": "amount",
                            "type": "uint256"
                        }
                    ],
                    "internalType": "struct BulkSend.ERC20TransferTask[]",
                    "name": "tasks",
                    "type": "tuple[]"
                }
            ],
            "name": "erc20send",
            "outputs": [],
            "stateMutability": "payable",
            "type": "function"
        },
        {
            "inputs": [
                {
                    "internalType": "contract IERC721",
                    "name": "token",
                    "type": "address"
                },
                {
                    "components": [
                        {
                            "internalType": "address",
                            "name": "to",
                            "type": "address"
                        },
                        {
                            "internalType": "uint256",
                            "name": "id",
                            "type": "uint256"
                        }
                    ],
                    "internalType": "struct BulkSend.ERC721TransferTask[]",
                    "name": "tasks",
                    "type": "tuple[]"
                }
            ],
            "name": "erc721send",
            "outputs": [],
            "stateMutability": "payable",
            "type": "function"
        },
        {
            "inputs": [],
            "name": "fee",
            "outputs": [
                {
                    "internalType": "uint256",
                    "name": "",
                    "type": "uint256"
                }
            ],
            "stateMutability": "view",
            "type": "function"
        },
        {
            "inputs": [],
            "name": "owner",
            "outputs": [
                {
                    "internalType": "address",
                    "name": "",
                    "type": "address"
                }
            ],
            "stateMutability": "view",
            "type": "function"
        },
        {
            "inputs": [],
            "name": "renounceOwnership",
            "outputs": [],
            "stateMutability": "nonpayable",
            "type": "function"
        },
        {
            "inputs": [
                {
                    "internalType": "uint256",
                    "name": "_fee",
                    "type": "uint256"
                }
            ],
            "name": "setFee",
            "outputs": [],
            "stateMutability": "nonpayable",
            "type": "function"
        },
        {
            "inputs": [
                {
                    "internalType": "address",
                    "name": "newOwner",
                    "type": "address"
                }
            ],
            "name": "transferOwnership",
            "outputs": [],
            "stateMutability": "nonpayable",
            "type": "function"
        }
    ],
    "bytecode": "0x608060405234801561001057600080fd5b5061002d61002261003260201b60201c565b61003a60201b60201c565b6100fe565b600033905090565b60008060009054906101000a900473ffffffffffffffffffffffffffffffffffffffff169050816000806101000a81548173ffffffffffffffffffffffffffffffffffffffff021916908373ffffffffffffffffffffffffffffffffffffffff1602179055508173ffffffffffffffffffffffffffffffffffffffff168173ffffffffffffffffffffffffffffffffffffffff167f8be0079c531659141344cd1fd0a4f28419497f9722a3daafe3b4186f6b6457e060405160405180910390a35050565b6117098061010d6000396000f3fe60806040526004361061007b5760003560e01c80638da5cb5b1161004e5780638da5cb5b146100f8578063d53828ff14610123578063ddca3f431461013f578063f2fde38b1461016a5761007b565b80635dab9cc21461008057806369fe0e2d1461009c5780636edccc19146100c5578063715018a6146100e1575b600080fd5b61009a60048036038101906100959190610b76565b610193565b005b3480156100a857600080fd5b506100c360048036038101906100be9190610c0c565b610225565b005b6100df60048036038101906100da9190610ccd565b6102ab565b005b3480156100ed57600080fd5b506100f661037f565b005b34801561010457600080fd5b5061010d610407565b60405161011a9190610d3c565b60405180910390f35b61013d60048036038101906101389190610deb565b610430565b005b34801561014b57600080fd5b5061015461051b565b6040516101619190610e5a565b60405180910390f35b34801561017657600080fd5b50610191600480360381019061018c9190610ea1565b610521565b005b61019b610619565b60005b8282905081101561021f5760008383838181106101be576101bd610ece565b5b9050604002018036038101906101d49190610fde565b905061020b33826000015183602001518873ffffffffffffffffffffffffffffffffffffffff166106bb909392919063ffffffff16565b5080806102179061103a565b91505061019e565b50505050565b61022d610744565b73ffffffffffffffffffffffffffffffffffffffff1661024b610407565b73ffffffffffffffffffffffffffffffffffffffff16146102a1576040517f08c379a0000000000000000000000000000000000000000000000000000000008152600401610298906110e0565b60405180910390fd5b8060018190555050565b6102b3610619565b60005b828290508110156103795760008383838181106102d6576102d5610ece565b5b9050604002018036038101906102ec9190611150565b90508473ffffffffffffffffffffffffffffffffffffffff166342842e0e33836000015184602001516040518463ffffffff1660e01b81526004016103339392919061117d565b600060405180830381600087803b15801561034d57600080fd5b505af1158015610361573d6000803e3d6000fd5b505050505080806103719061103a565b9150506102b6565b50505050565b610387610744565b73ffffffffffffffffffffffffffffffffffffffff166103a5610407565b73ffffffffffffffffffffffffffffffffffffffff16146103fb576040517f08c379a00000000000000000000000000000000000000000000000000000000081526004016103f2906110e0565b60405180910390fd5b610405600061074c565b565b60008060009054906101000a900473ffffffffffffffffffffffffffffffffffffffff16905090565b610438610619565b60005b8282905081101561051557600083838381811061045b5761045a610ece565b5b9050606002018036038101906104719190611218565b90508473ffffffffffffffffffffffffffffffffffffffff1663f242432a33836000015184602001518560400151604051806020016040528060008152506040518663ffffffff1660e01b81526004016104cf9594939291906112cd565b600060405180830381600087803b1580156104e957600080fd5b505af11580156104fd573d6000803e3d6000fd5b5050505050808061050d9061103a565b91505061043b565b50505050565b60015481565b610529610744565b73ffffffffffffffffffffffffffffffffffffffff16610547610407565b73ffffffffffffffffffffffffffffffffffffffff161461059d576040517f08c379a0000000000000000000000000000000000000000000000000000000008152600401610594906110e0565b60405180910390fd5b600073ffffffffffffffffffffffffffffffffffffffff168173ffffffffffffffffffffffffffffffffffffffff16141561060d576040517f08c379a000000000000000000000000000000000000000000000000000000000815260040161060490611399565b60405180910390fd5b6106168161074c565b50565b600060015411156106b9576001543414610668576040517f08c379a000000000000000000000000000000000000000000000000000000000815260040161065f90611405565b60405180910390fd5b610670610407565b73ffffffffffffffffffffffffffffffffffffffff166108fc6001549081150290604051600060405180830381858888f193505050501580156106b7573d6000803e3d6000fd5b505b565b61073e846323b872dd60e01b8585856040516024016106dc9392919061117d565b604051602081830303815290604052907bffffffffffffffffffffffffffffffffffffffffffffffffffffffff19166020820180517bffffffffffffffffffffffffffffffffffffffffffffffffffffffff8381831617835250505050610810565b50505050565b600033905090565b60008060009054906101000a900473ffffffffffffffffffffffffffffffffffffffff169050816000806101000a81548173ffffffffffffffffffffffffffffffffffffffff021916908373ffffffffffffffffffffffffffffffffffffffff1602179055508173ffffffffffffffffffffffffffffffffffffffff168173ffffffffffffffffffffffffffffffffffffffff167f8be0079c531659141344cd1fd0a4f28419497f9722a3daafe3b4186f6b6457e060405160405180910390a35050565b6000610872826040518060400160405280602081526020017f5361666545524332303a206c6f772d6c6576656c2063616c6c206661696c65648152508573ffffffffffffffffffffffffffffffffffffffff166108d79092919063ffffffff16565b90506000815111156108d25780806020019051810190610892919061145d565b6108d1576040517f08c379a00000000000000000000000000000000000000000000000000000000081526004016108c8906114fc565b60405180910390fd5b5b505050565b60606108e684846000856108ef565b90509392505050565b606082471015610934576040517f08c379a000000000000000000000000000000000000000000000000000000000815260040161092b9061158e565b60405180910390fd5b61093d85610a03565b61097c576040517f08c379a0000000000000000000000000000000000000000000000000000000008152600401610973906115fa565b60405180910390fd5b6000808673ffffffffffffffffffffffffffffffffffffffff1685876040516109a59190611656565b60006040518083038185875af1925050503d80600081146109e2576040519150601f19603f3d011682016040523d82523d6000602084013e6109e7565b606091505b50915091506109f7828286610a26565b92505050949350505050565b6000808273ffffffffffffffffffffffffffffffffffffffff163b119050919050565b60608315610a3657829050610a86565b600083511115610a495782518084602001fd5b816040517f08c379a0000000000000000000000000000000000000000000000000000000008152600401610a7d91906116b1565b60405180910390fd5b9392505050565b6000604051905090565b600080fd5b600080fd5b600073ffffffffffffffffffffffffffffffffffffffff82169050919050565b6000610acc82610aa1565b9050919050565b6000610ade82610ac1565b9050919050565b610aee81610ad3565b8114610af957600080fd5b50565b600081359050610b0b81610ae5565b92915050565b600080fd5b600080fd5b600080fd5b60008083601f840112610b3657610b35610b11565b5b8235905067ffffffffffffffff811115610b5357610b52610b16565b5b602083019150836040820283011115610b6f57610b6e610b1b565b5b9250929050565b600080600060408486031215610b8f57610b8e610a97565b5b6000610b9d86828701610afc565b935050602084013567ffffffffffffffff811115610bbe57610bbd610a9c565b5b610bca86828701610b20565b92509250509250925092565b6000819050919050565b610be981610bd6565b8114610bf457600080fd5b50565b600081359050610c0681610be0565b92915050565b600060208284031215610c2257610c21610a97565b5b6000610c3084828501610bf7565b91505092915050565b6000610c4482610ac1565b9050919050565b610c5481610c39565b8114610c5f57600080fd5b50565b600081359050610c7181610c4b565b92915050565b60008083601f840112610c8d57610c8c610b11565b5b8235905067ffffffffffffffff811115610caa57610ca9610b16565b5b602083019150836040820283011115610cc657610cc5610b1b565b5b9250929050565b600080600060408486031215610ce657610ce5610a97565b5b6000610cf486828701610c62565b935050602084013567ffffffffffffffff811115610d1557610d14610a9c565b5b610d2186828701610c77565b92509250509250925092565b610d3681610ac1565b82525050565b6000602082019050610d516000830184610d2d565b92915050565b6000610d6282610ac1565b9050919050565b610d7281610d57565b8114610d7d57600080fd5b50565b600081359050610d8f81610d69565b92915050565b60008083601f840112610dab57610daa610b11565b5b8235905067ffffffffffffffff811115610dc857610dc7610b16565b5b602083019150836060820283011115610de457610de3610b1b565b5b9250929050565b600080600060408486031215610e0457610e03610a97565b5b6000610e1286828701610d80565b935050602084013567ffffffffffffffff811115610e3357610e32610a9c565b5b610e3f86828701610d95565b92509250509250925092565b610e5481610bd6565b82525050565b6000602082019050610e6f6000830184610e4b565b92915050565b610e7e81610ac1565b8114610e8957600080fd5b50565b600081359050610e9b81610e75565b92915050565b600060208284031215610eb757610eb6610a97565b5b6000610ec584828501610e8c565b91505092915050565b7f4e487b7100000000000000000000000000000000000000000000000000000000600052603260045260246000fd5b600080fd5b6000601f19601f8301169050919050565b7f4e487b7100000000000000000000000000000000000000000000000000000000600052604160045260246000fd5b610f4b82610f02565b810181811067ffffffffffffffff82111715610f6a57610f69610f13565b5b80604052505050565b6000610f7d610a8d565b9050610f898282610f42565b919050565b600060408284031215610fa457610fa3610efd565b5b610fae6040610f73565b90506000610fbe84828501610e8c565b6000830152506020610fd284828501610bf7565b60208301525092915050565b600060408284031215610ff457610ff3610a97565b5b600061100284828501610f8e565b91505092915050565b7f4e487b7100000000000000000000000000000000000000000000000000000000600052601160045260246000fd5b600061104582610bd6565b91507fffffffffffffffffffffffffffffffffffffffffffffffffffffffffffffffff8214156110785761107761100b565b5b600182019050919050565b600082825260208201905092915050565b7f4f776e61626c653a2063616c6c6572206973206e6f7420746865206f776e6572600082015250565b60006110ca602083611083565b91506110d582611094565b602082019050919050565b600060208201905081810360008301526110f9816110bd565b9050919050565b60006040828403121561111657611115610efd565b5b6111206040610f73565b9050600061113084828501610e8c565b600083015250602061114484828501610bf7565b60208301525092915050565b60006040828403121561116657611165610a97565b5b600061117484828501611100565b91505092915050565b60006060820190506111926000830186610d2d565b61119f6020830185610d2d565b6111ac6040830184610e4b565b949350505050565b6000606082840312156111ca576111c9610efd565b5b6111d46060610f73565b905060006111e484828501610e8c565b60008301525060206111f884828501610bf7565b602083015250604061120c84828501610bf7565b60408301525092915050565b60006060828403121561122e5761122d610a97565b5b600061123c848285016111b4565b91505092915050565b600081519050919050565b600082825260208201905092915050565b60005b8381101561127f578082015181840152602081019050611264565b8381111561128e576000848401525b50505050565b600061129f82611245565b6112a98185611250565b93506112b9818560208601611261565b6112c281610f02565b840191505092915050565b600060a0820190506112e26000830188610d2d565b6112ef6020830187610d2d565b6112fc6040830186610e4b565b6113096060830185610e4b565b818103608083015261131b8184611294565b90509695505050505050565b7f4f776e61626c653a206e6577206f776e657220697320746865207a65726f206160008201527f6464726573730000000000000000000000000000000000000000000000000000602082015250565b6000611383602683611083565b915061138e82611327565b604082019050919050565b600060208201905081810360008301526113b281611376565b9050919050565b7f57726f6e67206665650000000000000000000000000000000000000000000000600082015250565b60006113ef600983611083565b91506113fa826113b9565b602082019050919050565b6000602082019050818103600083015261141e816113e2565b9050919050565b60008115159050919050565b61143a81611425565b811461144557600080fd5b50565b60008151905061145781611431565b92915050565b60006020828403121561147357611472610a97565b5b600061148184828501611448565b91505092915050565b7f5361666545524332303a204552433230206f7065726174696f6e20646964206e60008201527f6f74207375636365656400000000000000000000000000000000000000000000602082015250565b60006114e6602a83611083565b91506114f18261148a565b604082019050919050565b60006020820190508181036000830152611515816114d9565b9050919050565b7f416464726573733a20696e73756666696369656e742062616c616e636520666f60008201527f722063616c6c0000000000000000000000000000000000000000000000000000602082015250565b6000611578602683611083565b91506115838261151c565b604082019050919050565b600060208201905081810360008301526115a78161156b565b9050919050565b7f416464726573733a2063616c6c20746f206e6f6e2d636f6e7472616374000000600082015250565b60006115e4601d83611083565b91506115ef826115ae565b602082019050919050565b60006020820190508181036000830152611613816115d7565b9050919050565b600081905092915050565b600061163082611245565b61163a818561161a565b935061164a818560208601611261565b80840191505092915050565b60006116628284611625565b915081905092915050565b600081519050919050565b60006116838261166d565b61168d8185611083565b935061169d818560208601611261565b6116a681610f02565b840191505092915050565b600060208201905081810360008301526116cb8184611678565b90509291505056fea26469706673582212206f8958a121d3d5bb8bd5351f8496c270172d9ef580a98346d412a9235cdfb93364736f6c63430008090033",
    "linkReferences": {},
    "deployedLinkReferences": {}
}